:020000040800F2
:10000000281C0020F5010008FD010008FF01000880
:1000100001020008030200080502000800000000B9
:1000200000000000000000000000000007020008BF
:1000300009020008000000000B020008B5010008DA
:100040000F0200080F0200080F0200080F0200084C
:100050000F0200080F0200080F0200080F0200083C
:100060000F0200080F0200080F0200080F0200082C
:100070000F0200080F0200080F0200080F0200081C
:100080000F0200080F0200080F0200080F0200080C
:100090000F0200080F0200080F0200080F020008FC
:1000A0000F0200080F0200080F0200080F020008EC
:1000B0000F0200080F0200080F0200080F020008DC
:1000C0000F0200080F0200080F0200080F020008CC
:1000D0000F0200080F0200080F0200080F020008BC
:1000E0000F0200080F0200080F02000800F002F8DB
:1000F00000F050F814A696E8000CB244B344DA4578
:1001000001D100F047F8BAE80F000FA696E83000DA
:10011000A5EB040504EB0607AAEB0704A7F101070A
:100120004FEA15154FEA3414A4F10104AC4201D38F
:1001300000F030F813F0010F18BFFB1A43F0010371
:1001400000F001F8DBE718470C0400002C04000065
:10015000103A24BF78C878C1FAD8520724BF30C8F3
:1001600030C144BF04680C60704700007047000055
:100170000023002400250026103A28BF78C1FBD8B0
:10018000520728BF30C148BF0B6070471FB51FBD65
:1001900010B510BD00F051F81146FFF7F7FF00F061
:1001A0000FF900F06FF803B4FFF7F2FF03BC00F0A3
:1001B00077F8000072B62DE9F00F0D480168C1F81C
:1001C00000D049680160D1F800D0BDE8F00F62B6F8
:1001D000704707480268D2F800D0BDE8F00F0FBCA6
:1001E0005DF804CB01B05DF804EB01B062B6704776
:1001F000E41700200948804709480047FEE7FEE76A
:10020000FEE7FEE7FEE7FEE7FEE7FEE7FEE7FEE7C6
:1002100004480549054A064B70470000B102000832
:10022000ED00000828180020281C0020281A0020B3
:10023000281A0020704770477047754600F02CF868
:10024000AE4605006946534620F00700854618B0C3
:1002500020B5FFF7DDFFBDE820404FF000064FF06E
:1002600000074FF000084FF0000BAC46ACE8C009A7
:10027000ACE8C009ACE8C009ACE8C00921F007014E
:100280008D46704710B50446AFF300802046BDE8A8
:100290001040FFF788BF00000048704710000020A2
:1002A00001491820ABBEFEE726000200704700009F
:1002B00082B041F20400C4F2020050F8041C002293
:1002C00041F0010140F8041C0168CFF6FF02114023
:1002D000016050F8041C4FF6FF72CFF6F662114031
:1002E00040F8041C50F8041C21F4802140F8041C40
:1002F000016821F4FE0101604FF41F0141600021FB
:100300000191009150F8041C41F4803140F8041C24
:1003100050F8041C01F40031009101990131019160
:10032000009919B90199B1F5A06FF1D150F8041CE9
:10033000890354BF0021012100910099012936D180
:1003400042F20001C4F202010A6842F010020A609F
:100350000A6822F007020A600A6842F002020A6094
:100360000168016001680160016841F48061016019
:10037000016821F47C110160016841F4E811016019
:1003800050F8041C41F0807140F8041C50F8041C23
:100390008901FBD5016821F003010160016841F08A
:1003A00002010160016801F00C010829FAD14EF642
:1003B0000850CEF200004FF00061016002B07047BB
:1003C00080B500F09DF840F20000C2F20000006825
:1003D00000F014F840F20400C2F20000006800F0DF
:1003E0000DF840F20800C2F20000006800F006F8C4
:1003F000642000F08FF8002080BD00002DE9F04758
:1004000041F2E87C72B6C2F2000CDCF8002040F247
:100410007403C2F200034FF4966541F2EC7E02FBD6
:10042000053502EB4204C2F2000E4BF6EF670EEB0D
:100430008401043D4FF49676CDF6AD67886000BF29
:10044000013E45F8047FFBD14FF4966502FB05336E
:100450004FF0113803F58E654EF824504FF080743C
:10046000C3F8AC4440684FF01039C3F8A8044FF00B
:100470001430C3F8A4044FF01230C3F8A0044FF0B6
:100480000330C3F89C044FF00230C3F898044FF0D7
:100490000130C3F894040020C3F890044FF0093AE7
:1004A0004FF008364FF007374FF006304FF0053465
:1004B0004FF00435C3F87054C3F87444C3F878049B
:1004C000C3F87C74C3F88064C3F884A4C3F8889428
:1004D000002AC3F88C841ABF41F8081C081D0EF1CD
:1004E0000400C0F800E041F2E470C2F20000C0F87D
:1004F00000E0501CCCF8000062B60120BDE8F08797
:1005000040F2700041F64011C2F20000C0F2010159
:10051000016070474EF21001CEF2000100220A6025
:100520008A6040F27002C2F2000212685043013841
:1005300048604EF62350CEF20000F02202700868A8
:1005400040F005000860086840F002000860FFF70E
:1005500040BE0000780500080000002010000000E8
:10056000500100088805000810000020181C000039
:100570007001000800000000000001080080010870
:080580000080000800000000EB
:04000005080000ED02
:00000001FF
